:020000040800F2
:1000000088070020C9000008B1270008DF22000887
:1000100000000000000000000000000000000000E0
:10002000000000000000000000000000C32A0008DB
:100030000000000000000000C12A0008C52A0008D6
:10004000DB00000800000000DB000008DB00000807
:10005000DB000008DB000008DB000008DB00000814
:1000600000000000DB000008DB000008DB000008E7
:10007000DB000008892B0008DB00000800000000FE
:10008000DB0000080000000000000000DB000008AA
:1000900000000000DB000008DB000008DB000008B7
:1000A00000000000DB00000800000000DB0000088A
:1000B0000448854600F006FC00480047E93A00087D
:1000C000C046C046880700200448804704480047CF
:1000D000FEE7FEE7FEE7FEE7FEE7FEE72D2B000862
:1000E000B100000830B50B46014600202022012453
:1000F00009E00D46D5409D4205D31D469540491B5C
:100100002546954040191546521E002DF1DC30BDA4
:1001100010B5202A04DB0846203AD040002110BD4B
:100120000B46D340D0402024A21A914008431946E0
:1001300010BDD2B201E00270401C491EFBD27047D4
:100140000022F6E710B513460A4604461946FFF7A3
:10015000F0FF204610BDF8B502464A40D40F4200D9
:100160004B0052085B089A4202D2024608461146EA
:100170004A0023D0C30D4A00DDB2120EAD1A202D65
:1001800035DA49020126490AF6058A19002C00D001
:10019000524220214F1B1146B9402A411018C20D6E
:1001A0009A4221D0002C17D0012D08DCDA05801AE4
:1001B000D20F8019D207DBB200F053FAF8BDDA058E
:1001C000801A012340001B06C01880185A4280186C
:1001D000CA0F1043490007E04908C2071143DA0576
:1001E000801A80194008801800F033FAF8BD6100C9
:1001F0000122511A001BF7E70122D2075140AAE75A
:100200000122D2075040A6E7420005D04200120E5C
:1002100052428A4201DB00207047C9050818704726
:10022000F0B507460846584087B0C00F0490480014
:100230000E46590040084908BC1A884105D2384684
:1002400031461E4617460B460246580040081043EA
:100250004DD0300D039040055900400D490D0590DB
:10026000401A0290402873DA18030121000B090597
:100270000843019004980092002806D01146019A84
:1002800049420020904100910190029840210A1AB1
:100290000199009800F0BAF905460C466B4607CB69
:1002A00000F0C4F9C0197141039A0E0D0023D7174D
:1002B00056401A467A40164344D0049A002A2DD05C
:1002C000029A012A039A15DC1205C01A91410126EF
:1002D0003605001C7141D20F059ED2070093019292
:1002E00002962A46234600F002FA07B0F0BD3846CF
:1002F0003146FAE71605234A0F46B218C01AB7412D
:1003000001210905001C4F4100187F4111461818B2
:100310007941E20F10436D19644113E0E2076D0863
:1003200015436408C2071443039A01261205C01A34
:1003300091413605001C7141CE0740083043490801
:10034000C01851412A46234600F0C4F9CDE7FFE723
:10035000049801224000C117121A00238B4104980F
:100360003146C417381AA141EEE730B40124E4073E
:10037000634030BC54E730B40124E407614030BC32
:100380004EE700000000E0FFF0B51FB488B00B9905
:100390000998002448400999C00F4900490809916B
:1003A000C0070B990090490049080B9109990898DA
:1003B000A64608431CD00B990A98084318D0099800
:1003C00001244000420D4800410D09982405000316
:1003D000000B204309900B980003000B20430B9067
:1003E00050181C494018002201901446104605E0A0
:1003F000002001460DB0F0BD032801DA034600E0FD
:1004000003239C46C11A0AAE0AE05F0008ADED5B0B
:100410004F00F75B7D430027AA187C41491C5B1EF7
:100420006145F2DD410004AB5A522104120C0A432B
:10043000240C401C0828DFDB0198029000997046CC
:1004400001910090059B049A0799069800F04FF9D6
:10045000D0E700000DFCFFFFC217C10F504010B5E0
:100460004018CA079623002100F0FBF810BD10B514
:1004700000229623114600F0F4F810BD0EB5054990
:100480000291002100910A460B46019100F02FF9DC
:1004900003B000BD330400004A0009030123090B27
:1004A0001B051943094B10B5520D9A4201DA002081
:1004B00010BD064B34339A4203DC9A1AFFF728FE2C
:1004C00010BD03495118884010BD0000FF03000013
:1004D000CDFBFFFFC20FD207400040080BD0C10D7B
:1004E0000723DB01C91840020905400A1143C2086D
:1004F00040071143704700200146704710B500299E
:1005000004DB0124E40740428C412146002B04DB3C
:100510001C460123DB075242A3418B4200D1824299
:1005200010BD000010B5002904DB0124E40740429F
:100530008C412146002B04DB1C460123DB07524281
:10054000A341994200D1904210BD0000CB0FDB07C0
:10055000490010B5490802460A4307D00A0D07248E
:100560000903E401090B121B002A01DC002010BD65
:10057000C900440F0C43C100E018D205801800F0F8
:1005800068F810BD0122D207002800DB101A0029EC
:1005900000DB511A814270470122D207002800DB9C
:1005A000101A002900DB511A88427047F0B51FB4B9
:1005B0000646002082B005464024019100901BE0D1
:1005C000019922460F463046FFF7A2FD049A059B8B
:1005D000801A994110D310461946224600F016F8A9
:1005E000361A8F410197224601200021009F00F01A
:1005F0000DF838184D4100902046641E0028DFDCBD
:10060000019B00982946324607B0F0BD10B5202A5C
:1006100004DB0146203A9140002010BD9140202388
:100620009C1A0346E3401943904010BD10B5202AA0
:1006300006DBCB170846203A1041C1170B4306E0F2
:100640000B461341D0402024A21A9140084319467A
:1006500010BD002904DA401C490001D140084000C7
:10066000704770B40024050C05D11024000402D199
:10067000002921D01124050E01D100020834050FF4
:1006800001D10001241D850F01D18000A41C002888
:1006900001DB4000641C002908D020252E1B0D46DC
:1006A000F540A14000D001212943084301061B1B4E
:1006B000000ADB1D02D5002070BC7047DB0518184E
:1006C00080180029F8DA401C4900F5D170BC4008B8
:1006D0004000704710B5002B08DA0024401C61412F
:1006E00092185B411A4301D14008400010BDF0B59B
:1006F0001FB482B005460C0003D0084602F0C8FBC8
:1007000002E002F0C5FB2030024600902146284658
:10071000FFF77CFF049B059A04460F4618431143DC
:10072000084314D0184610431BD0009840210A1AE1
:1007300018460599FFF7ECFC05460E46009A059908
:100740000498FFF763FF084305D0012004E020462A
:10075000394607B0F0BD0020C11705430E432C43B6
:10076000374300990E986305401A7905E40A002280
:100770000C43FD0A0A3002D500200146E9E70105D5
:10078000101969410C9C0D9D00196941FFF7A2FFEA
:10079000DFE70000F0B50C465C4085B0E40FE407ED
:1007A00003944C0000266408590094464908024608
:1007B0000296224321D062460A431ED06200570DA2
:1007C0004A000E032303550D012402462C4924053B
:1007D000781B1B0B360B40182343264361460090C1
:1007E0001C46501AB44103D30098401C009002E00C
:1007F000921800985B41002803DA0020014605B0FA
:10080000F0BD0020012109050746864611E0644637
:100810001D46141BB54106D36546521BB3417446B1
:1008200007430C43A646CD074008490828439218C1
:100830005B4105460D43EAD11046184313D060468C
:10084000194650407140084306D06046101AB34123
:1008500006D20122002306E000220123DB0702E08A
:100860000122D2435310009874460105381C61419F
:10087000029C039D00196941FFF72CFFBFE70000B0
:10088000FD0300004A0009030123090B1B0519435E
:100890000A4B10B5520D9A4202DA0020014610BDF3
:1008A000064B34339A4203DC9A1AFFF731FC10BD31
:1008B000034BD218FFF7AAFE10BD0000FF03000093
:1008C000CDFBFFFF064C0125064E05E0E36807CC93
:1008D0002B430C3C98471034B442F7D3FFF7ECFBA2
:1008E000703F0008903F0008F3B581B00C4600F05F
:1008F000B5FA0126B60309270546FF0607E0BE61E3
:10090000019802F0CFFFBE62019802F0CBFF00F029
:10091000A5FA401BA042F2D3FEBD10B501F0DAFFEC
:1009200010BDF3B581B00F46084600F043F800282B
:100930003FD0019801F0FFFF3946019802F07DF8A1
:10094000BE21019802F0ABF8019801F0E2FF019896
:1009500001F0DFFF019801F0DCFF019801F0D9FF01
:10096000019801F0D6FF04467D26C925019801F0C3
:10097000E2FF3946019802F060F84E21019802F03A
:100980008EF83146019802F08AF82946019802F063
:1009900086F82146019802F082F8019801F0CBFF19
:1009A0003946019802F049F84821019802F077F899
:1009B0000120FEBD0078282801D0002070470120CA
:1009C00070470000F7B5002684B017460D46344640
:1009D0000846FFF7EFFF002821D0049801F07AFFC6
:1009E00000281CD0049801F0A6FF2946049802F0C4
:1009F00024F8BE21049802F052F86D46049801F0E4
:100A000088FF2855641CE4B2092CF7D308216846F6
:100A100001F014FF6946097A814202D0002007B034
:100A2000F0BD68460488049801F085FF200403D5D2
:100A3000E043401C84B20126684600796205400606
:100A40002111520F800F49B215010D4309300928B9
:100A500015D00A281AD00B2822D00C2827D0174CE2
:100A600000252846FFF7F8FC2146FFF774FB002E0F
:100A700002D00121C907484038600120CFE7200794
:100A8000C00FFFF7F4FC0021C94305E02007800FE9
:100A9000FFF7EDFC0121C943FFF7B6FB0446E0E791
:100AA0002007400FFFF7E3FC0221C943F4E72007CA
:100AB000000FFFF7DCFC0321C943EDE700007F4393
:100AC000FEB5074615460E460846FFF773FF002899
:100AD00055D0384601F02FFF3146384601F0ADFFC2
:100AE000BE21384601F0DBFF384601F012FF3846E0
:100AF00001F00FFF384601F00CFF0190384601F07D
:100B000008FF0090384601F004FF0446BF21DF20B3
:100B1000092D08D020220A2D07D040210B2D06D008
:100B20000C2D07D008E00C4002E00C4003E00C4321
:100B3000044001E00C431443384601F0FCFE31460A
:100B4000384601F07AFF4E21384601F0A8FF3846BA
:100B5000019901F0A4FF3846009901F0A0FF214659
:100B6000384601F09CFF384601F0E5FE3146384634
:100B700001F063FF4821384601F091FF0120FEBDDE
:100B800010B5044601F0D7FECC21204601F087FFC6
:100B90004421204601F083FF10BD0000F8B5012577
:100BA0007D272B4CFF00012209215203C906294849
:100BB00001F071FE0020207000F050F9064602E0BE
:100BC000642000F08DF800F049F9801BB842F7D39B
:100BD000204801F04EFE1F4E6070103E10E0642071
:100BE00000F07EF82078401CC0B22070000181190E
:100BF0001848103901F046FE164801F066FE607094
:100C00000006000EEBD12078002803D0002D05D07F
:100C1000002518E06D1E2D062D0EC4D10020F8BD54
:100C2000322000F05DF8280187190C223946094866
:100C3000FFF746FF322000F053F839460548FFF72A
:100C400070FE6D1CEDB220788542E9D30120F8BD1D
:100C50001C00002074010020F8B51F4C6420606067
:100C60001E48FFF78DFF642000F03AF81B4F103F3D
:100C700006E00A2000F034F86068401E60601BD077
:100C80001648FFF74AFE0028F3D06068002813D00A
:100C900000260DE0642000F023F83001C5192A4633
:100CA000083229460D48FFF78DFE761C2873F6B2F0
:100CB00020788642EED30AE000202178024604E044
:100CC0000301DB19401C1A73C0B28842F8D3606874
:100CD000002800D00120F8BD1C0000207401002075
:100CE00031B500F0BBF8009C0546601C00D0641CC8
:100CF00000F0B4F8401BA042FAD338BDF8B5002389
:100D00008DE001249C40A44622407DD04C68022CFA
:100D100001D0122C0CD1DC08A40027183C6A5D0716
:100D2000ED0E0F26AE40B4430E69AE4026433E6240
:100D300005685E000324B4400F79A543BF07BF0FC9
:100D4000B7402F4307604D68012D05D0022D03D019
:100D5000112D01D0122D0ED18568CF68A543B74063
:100D60002F43876047686546AF430D79ED06ED0F69
:100D70009D403D434560C568A5438C68B4402C4305
:100D8000C4604C68E40049D5284CA5690126354368
:100D9000A561A4699D0834400094254CAD002F192D
:100DA000BC689D072E0F0F25B540AC430925ED0605
:100DB000A84201D100250FE01E4DA84201D1012516
:100DC0000AE01D4DA84201D1022505E01B4DA842B5
:100DD00001D1032500E00525B5402543BD60184C31
:100DE00025684E689543F60300D515432560656870
:100DF0004E689543B60300D515436560A5684E68F7
:100E00009543F60202D500E008E01543A560E568C9
:100E10004E689543B60200D51543E5605B1C0A6831
:100E20001446DC4000D06CE7F8BD00000010024022
:100E3000000001400004004800080048000C004881
:100E4000000401400069084000D001207047002ADA
:100E500001D08161704781627047000001480068DD
:100E6000704700001400002070B5024640325378ED
:100E7000202B1CD11378012B19D0012313702424AB
:100E80005470046825689D432560046825681E0326
:100E9000B5432560046825680D4325600068016836
:100EA00019430160202050700020107070BD022096
:100EB00070BD70B5024640325378202B1BD1137899
:100EC000012B18D0012414702423537003681D686B
:100ED000A5431D6005682B680F263602B34309023F
:100EE0001943296000680168214301602020507087
:100EF0000020107070BD022070BD000070B50400AD
:100F000006D02546403568780026002802D005E046
:100F1000012070BD2E70204600F02CFA242068704D
:100F2000206801684908490001600F2160680906CE
:100F300088432168086121688A680120C0038243D0
:100F40008A60E1680129A16808D021229202114338
:100F500022689160E168022902D005E00143F7E7C9
:100F600001212268C902516021684A680F4B1A4367
:100F70004A602168CA688243CA606169206908437F
:100F8000A169090208432168C860216AE069084331
:100F900021680860206801680122114301606664CD
:100FA000202068702663AE70002070BD00800002B3
:100FB000FFB5054604464035687881B020287ED1CB
:100FC000287801287BD001202870FFF747FF0746CB
:100FD000012200901923D103204601F049FA00288C
:100FE0003FD1212068701020A87000266664039805
:100FF0006062049860856663618D01204003FF296B
:1010000003D9FF222285009034E0618D2185009074
:1010100036E02046029901F019FA36E001F073FA41
:10102000002803D0606C042847D01AE0606A411C95
:101030006162017820688162608D401E6085208D2C
:10104000401E0004000C20851FD1608D00281CD09C
:1010500000970022802120460A9B01F009FA00280F
:1010600002D0032005B0F0BD608DFF2805D9FF2216
:101070002285009601231B06CBE7608D2085009614
:10108000208D0123C2B25B06C3E7608D0A99002858
:101090003A462046C2D101F00FFA0028C2D1216899
:1010A0002020C86121684A68064B1A404A6068706F
:1010B000AE702E700020D5E701E00120D2E70220BB
:1010C000D0E7000000E800FEFFB5054604464035C5
:1010D000687883B0202873D10C98002871D00D98BF
:1010E00000286ED0287801286AD001202870FFF7E8
:1010F000B5FE0746012200901923D103204601F0D6
:10110000B7F9002876D1222068704020A870002608
:1011100066640C9860620D98608566630E98009016
:10112000019704A90EC9204601F026F9002804D031
:10113000606C2E70042860D05CE0618D0920800214
:10114000FF2905D9FF22228501231B06009006E016
:10115000618D21850090208D0123C2B25B0620465F
:10116000049901F073F900970022042120460E9B98
:1011700001F07EF900283DD12068416A606A421C76
:1011800062620170208D401E81B22185608D401EFB
:101190006085002921D1608D00281ED00097002293
:1011A000802120460E9B01F063F9002822D1608D3A
:1011B000FF2807D9FF22228501231B06009608E09D
:1011C0002AE01AE0608D20850096208D0123C2B2AE
:1011D0005B062046049901F039F9608D0028C2D1E0
:1011E0003A4620460E9901F067F9002807D0606C56
:1011F000042802D0032007B0F0BD0120FBE72168DE
:101200002020C86121684A68044B1A404A6068700F
:10121000AE702E700020EEE70220ECE700E800FE42
:10122000FFB5054604464035687883B0202876D15E
:101230000C98002874D00D98002871D028780128C7
:101240006DD001202870FFF709FE074601220090AB
:101250001923D103204601F00BF9002853D1212096
:1012600068704020A870002666640C9860620D9833
:10127000608566630E980090019704A90EC9204608
:1012800001F0AFF8002804D0606C2E7004286AD0FA
:1012900039E0608DFF2805D9FF22228501231B0636
:1012A000009606E0608D20850096208D0123C2B255
:1012B0005B062046049901F0C9F83A4620460E998B
:1012C00001F021F9002803D0606C04284BD01AE00B
:1012D000606A411C6162216800788862608D401EEE
:1012E0006085208D401E0004000C208524D1608D77
:1012F000002821D000970022802120460E9B01F07B
:10130000B7F8002802D0032007B0F0BD608DFF2899
:1013100007D9FF22228501231B06009608E024E05E
:1013200021E0608D20850096208D0123C2B25B06EE
:101330002046049901F08AF8608D0028BDD13A4614
:1013400020460E9901F0B8F80028BDD12068202170
:10135000C16120684268064B1A4042606970AE70F5
:101360002E700020D0E70120CEE70220CCE700005D
:1013700000E800FE10B586B0044614216846FEF76A
:10138000DFFE13492068884220D1124C6169012098
:1013900040040143616161690140032005914002FD
:1013A000009012200190012002900320039004205D
:1013B000049009206946C006FFF7A0FCE1690120FE
:1013C00040050143E161E1690140059106B010BDAE
:1013D000005400400010024070B504000FD0216896
:1013E0001348086021681348086003CC41602068F6
:1013F000083C21688860FFF731FD054608E00120C0
:1014000070BDFFF72BFD401B272801D9032070BDBD
:101410002068C0680028F4D120680269E1688A4227
:1014200001D0016101E004490160002070BD0000AD
:10143000CCCC000055550000AAAA00000068024963
:101440000160002070470000AAAA0000024801685D
:10145000491C0160704700001400002010B50648C8
:101460000168102211430160002000F007F800F02D
:1014700017F8002010BD00000020024010B50446FF
:1014800000F046F97D21C900FEF72CFE00F038FB84
:1014900000222146501E00F021F8002010BD00005F
:1014A00008B50848816901221143816181691140B1
:1014B0000091C26901040A43C261C06908400090FA
:1014C00008BD000000100240C106C90E012088407E
:1014D000014908607047000000E100E010B501F02C
:1014E0006BF910BDF8B505460068354CC00352D500
:1014F000E0690026C00007D4E16920040143E161EE
:10150000E1690140012600912E480168C90510D407
:101510000168821511430160FFF7A0FC074604E053
:10152000FFF79CFCC01B642824D826480068C0052F
:10153000F6D5206A03273F02384020D06968394039
:1015400081421CD0206A226AB843012109040A435F
:101550002262226A8A4322622062C0070FD0FFF70C
:101560007DFC009008E0FFF779FC0099411A1648CD
:10157000814201D90320F8BD206A8007F3D5206A93
:101580006968B84308432062002E04D0E169012055
:1015900000078143E1612878C00705D0206BA96866
:1015A00080088000084320632878800605D5206BDA
:1015B00010218843E968084320630020F8BD00003B
:1015C00000100240007000408813000070470000C7
:1015D000F8B5054644480E460068C007C00FB04243
:1015E0000AD2414801684908490031430160006856
:1015F000C007C00FB0425CD128783C4C800705D5AD
:101600006068F0218843A968084360602878C007B3
:101610003FD06868012813D02168022813D08907B9
:10162000002946DA61688908890001436160FFF793
:1016300015FC6968074601290DD0022917D024E05E
:1016400021688903ECE78901EAE7FFF707FCC11B82
:101650002748814217D860680007800F0128F4D11D
:1016600017E0FFF7FBFBC11B214881420BD86068E4
:101670000007800F0228F4D10BE0FFF7EFFBC11B3E
:101680001B48814201D90320F8BD60680007800F24
:10169000F3D115480168C907C90FB1420BD90168D8
:1016A00049084900314301600068C007C00FB042DB
:1016B00001D00120F8BD2878400706D560680721D1
:1016C00009028843E9680843606000F027F8616810
:1016D000084A0906090F515CC84007490860002004
:1016E000FFF7CCFE0020F8BD0020024000100240B1
:1016F00088130000603F00081800002003480168BC
:101700000122D20411430160704700000010024022
:1017100001480068704700001800002010B512A3AF
:101720000FCB88B06C460FC413A30FCB0FC4164960
:101730004A680C20134603401448042B0FD0082B92
:101740000DD193021B0F6C46E45CC96A04AB090718
:10175000090F595CD20304D5FEF7C4FC604308B0FE
:1017600010BD0B486043FAE70203040506070809A9
:101770000A0B0C0D0E0F10100102030405060708DA
:10178000090A0B0C0D0E0F100010024000127A0017
:1017900000093D0010B5044CA068000603D5FFF712
:1017A00015FF8020A07210BD00100240FEB5044657
:1017B0000078D04DC00747D068680007800F012827
:1017C00007D068680007800F022809D16868C00345
:1017D00006D52868800337D5606800287ED033E0BE
:1017E000012062680004012A11D08100002A01D082
:1017F000052A10D02A6882432A6028688843286016
:101800006068002814D0FFF729FB06460CE0296821
:1018100001432960F4E72A680A432A60F7E7FFF7E3
:101820001DFB801B64286FD828688003F7D50BE068
:10183000FFF714FB064604E0FFF710FB801B64284B
:10184000F1D828688003F7D4207801268007002883
:101850003BDA68680007800F07D068680007800FD0
:10186000022809D16868C00306D42868800715D506
:10187000E068012832D111E0E0680028286815D01E
:1018800030432860FFF7EAFA074604E0FFF7E6FA7C
:10189000C01B0228C7D828688007F7D52868F82118
:1018A00088432169C900084328600EE040084000D1
:1018B0002860FFF7D3FA074604E0FFF7CFFAC01B12
:1018C0000228B0D828688007F7D42078000724D5EC
:1018D000E0690028686A10D0304300E008E16862DF
:1018E000FFF7BCFA074604E0FFF7B8FAC01B02286E
:1018F00099D8686A8007F7D50FE040084000686211
:10190000FFF7ACFA074605E09DE0FFF7A7FAC01B1A
:10191000022888D8686A8007F7D42078042740070F
:10192000002860DA00200190E869C00008D4E96965
:10193000B8060143E961E969014001200091019085
:101940006D480168C90511D4016882151143016011
:10195000FFF784FA009005E0FFF780FA0099401A3B
:10196000642870D864480068C005F5D5A0680128CF
:101970000AD0002801D0052810D0286A400840006D
:101980002862286AB84301E0286A30432862A068C8
:10199000002812D0FFF762FA00900AE0286A384364
:1019A0002862F1E7FFF75AFA0099411A5348814239
:1019B00049D8286A8007F5D50DE0FFF74FFA009067
:1019C00006E0FFF74BFA0099411A4C4881423AD899
:1019D000286A8007F5D40198002804D0E96901201D
:1019E00000078143E9612078C00635D56069012888
:1019F0000CD0401D686B23D038436863686B400887
:101A000040006863FFF72AFA064622E0686B384315
:101A10006863686B30436863FFF720FA064604E0AA
:101A2000FFF71CFA801B02285BD8686B8007F7D58C
:101A3000686BF8218843A169C900084368630BE01B
:101A4000B8436863F4E74CE0FFF708FA801B02280C
:101A500047D8686B8007F7D4206A002846D06968A9
:101A60000907890F022943D0012636060228286873
:101A700005D0B0432860FFF7F1F9044633E0B043E6
:101A80002860FFF7EBF9074604E0FFF7E7F9C01B12
:101A9000022826D828688001F7D4E86AE16A00099C
:101AA00000010843E862616AA06A084369683D2250
:101AB0001204914308436860286830432860FFF7A8
:101AC000CDF9044604E0FFF7C9F9001B022808D845
:101AD00028688001F7D509E0FFF7C0F9001B02284C
:101AE00001D90320FEBD28688001F5D40020FEBD89
:101AF0000120FEBD0010024000700040881300006D
:101B0000094910B5401E884201D9012010BD074C7B
:101B100060610321081F00F04FFE0020A061072034
:101B20002061002010BD0000FFFFFF0000E000E08A
:101B30007047704770B502462032137F012B1BD0CF
:101B40000123137702245477046865687026B5432F
:101B50006560046865680E68354365600468A5685B
:101B60008026B543A5600068846849680C4384609A
:101B700053770020107770BD022070BD70B504004F
:101B800005D025462035687F002802D006E00120D8
:101B900070BD00202877204600F00AF80220687700
:101BA000211D206800F0F8FF01206877002070BD3B
:101BB00008B5134A0168134891420FD18269C114D4
:101BC0000A438261806900220840009001210D20B3
:101BD000FFF784FC0D20FFF777FC08BD0A4A91420D
:101BE00002D1C269022104E0084A9142F5D1C269DA
:101BF00089150A43C261C0690840009008BD000011
:101C0000002C014000100240000400400020004071
:101C10000222014620314A770268136801200343FB
:101C200013604877002070470268D36801210B4396
:101C3000D360006802680A43026000207047F8B56C
:101C4000054604462035287F012817D001272F7725
:101C500002206877226890687726FF23B0431B0232
:101C6000984390600868502837D00EDC202857D061
:101C700006DC00284ED0102840D14EE00220F8BDEE
:101C8000302850D0402839D13CE060282DD0702831
:101C900017D001221203801A0ED090422ED1CB68A9
:101CA0004A688968206800F0BEFF206881680122C8
:101CB00092031143816021E020688168C908C9004E
:101CC000F8E7CB684A688968206800F0ACFF2168B3
:101CD0008868B0433043886010E0CA68496820686B
:101CE00001F096F85021206806E0CA68496820682B
:101CF00001F09FF86021206800F0A0FF6F770020BE
:101D00002877F8BDCA684968206801F081F8402149
:101D10002068F1E700212068EEE710212068EBE75A
:101D200020212068E8E730212068E5E7704770B59A
:101D30000446006801690025C9438907002915DBAD
:101D4000C168C943890711D4E91E016101202077C8
:101D5000206880698007204602D0FFF7E7FF04E093
:101D600000F0CAF8204600F04BF925772068016999
:101D7000C943490717D4C168C943490713D404218B
:101D8000C943016102202077206880698005800FA7
:101D9000204602D0FFF7CAFF04E000F0ADF820466D
:101DA00000F02EF9257720680169C943090716D488
:101DB000C168C943090712D40821C943016104203D
:101DC00020772068C0698007204602D0FFF7AEFF69
:101DD00004E000F091F8204600F012F92577206821
:101DE0000169C943C90617D4C168C943C90613D4D8
:101DF0001021C9430161082020772068C06980054F
:101E0000800F204602D0FFF791FF04E000F074F845
:101E1000204600F0F5F8257720680169C943C90715
:101E200008D1C168C943C90704D1891E0161204690
:101E300000F040F920680169C943090609D4C16866
:101E4000C943090605D48021C94301612046FFF733
:101E50006FFE20680169C943490609D4C168C943B6
:101E6000490605D44021C9430161204600F036FAF5
:101E700020680169C943890609D4C168C943890634
:101E800005D42021C94301612046FFF752FE70BDF1
:101E9000F0B587B0044614216846FEF751F914499D
:101EA0002068884221D11348426949130A4342619C
:101EB0004069092708400590402000900320022532
:101EC00000240126FF0603900195029469460496BA
:101ED0003846FEF713FF802000900294694604966E
:101EE000019503943846FEF709FF07B0F0BD0000E6
:101EF00000040040001002407047F8B50646044652
:101F00002036307F0D4601280DD001203077022089
:101F100070770427002A08D0042A16D0082A2AD06D
:101F20000C2A4DD137E00220F8BD206800F08EFE6B
:101F30002068816908221143816120688169B94361
:101F40008161206881692A6912E0206800F0BAFE88
:101F5000206882690121C9020A438261206881697F
:101F60000122920291438161206881692A691202EB
:101F70001143816124E0206800F0DEFE2068C26920
:101F800008210A43C2612068C169B943C161206860
:101F9000C1692A6912E0206800F00AFF2068C1695F
:101FA0000122D2021143C1612068C2690121890264
:101FB0008A43C2612068C1692A6912021143C16162
:101FC0000120707700203077F8BD70B5040005D08F
:101FD00025462035687F002802D006E0012070BD2C
:101FE00000202877204600F00AF802206877211D9B
:101FF000206800F0D1FD01206877002070BD704797
:102000007047000010B504460068012200F000FE91
:102010000A482168814205D00948814202D0094816
:10202000814204D1486C0122D203104348642068E5
:102030000168012211430160002010BD002C014005
:10204000004401400048014030B5044600680022C9
:1020500000F0DEFD144A134821689310814205D038
:102060001248814202D0124881420AD1086A1042C5
:1020700007D1086A184204D1486C0125ED03A84332
:1020800048642068016A114206D1016A194203D1ED
:102090000168490849000160012020346077002070
:1020A00030BD0000002C014011110000004401402F
:1020B00000480140FEB50068764988427ED17648E6
:1020C000764C0078082808D12078401CC0B22070D7
:1020D0000A2802D3002001F029FCE0887049401C46
:1020E00080B2704F00250126E080884202D9E17855
:1020F00000297DD06C4988420BD9E078002808D0AF
:10210000FF203221F530FEF7EFFB38684663E580AB
:10211000E5702089401C80B22081A17800290AD076
:10212000FF21F531884206D902210920C0068161CC
:1021300025816670A570FEF78FFD5C4F00283DD0AD
:102140005B488168E068FEF71DFA37D05848806820
:10215000E06002902069FEF7BDF9564A564BFEF743
:102160005FF8009001910298FEF7B4F9019B009A84
:10217000FEF7D8F911D92069FEF7ACF94D4A4F4B5B
:102180005242FEF7F2F801910090E068FEF7A2F9E2
:10219000019B009AFEF7B2F907D24949E0688842EC
:1021A00003DAB84201DD052060712069FEF792F97B
:1021B0000022444BFEF734F8019100E05FE000900C
:1021C000E068FEF787F9019B009AFEF7ABF909D8A2
:1021D0003B48E168814205DA6079012802D000F0CD
:1021E00079FA66712169E068FEF7CCF90AD800E057
:1021F00046E0E068B84205DD6079002802D000F0D2
:1022000061FA65712069FEF765F92A4A2B4B524243
:10221000FEF7ABF805460091E068FEF75BF92A4649
:10222000009BFEF76BF905D2E068B84202DD092099
:10223000C00686612169E068FEF7AEF902D8E06861
:10224000B84203DC2049E068884202DB0920C0066E
:10225000866201F0C7FB06211CA001F0A3FB05214B
:10226000E06801F07FFB0121002001F0A8FB0521BF
:1022700018A001F097FB0521206901F073FBFEBD5A
:102280003968608948633221C800FEF72DFBE5807C
:10229000E6703EE7002C01403E00002000000020D8
:1022A000907E0000E4000020302A00000000A040E2
:1022B00064010020666666666666D63F9999B93FF6
:1022C000000070420000E03F000008425265616C6F
:1022D000543D0000536574543D0000007047FEE714
:1022E00001688A69D243920701D400228A62006899
:1022F0008169C943C90703D0816901221143816102
:1023000070470000F7B5044600680E468069C04378
:10231000C0062CD420272546403520688069C0435C
:1023200080060FD5701CF8D0002E05D0FEF796FD64
:102330000299401AB042F0D96F700020A87028703E
:102340000320FEBD21681020C8612068C7612046B7
:10235000FFF7C6FF20684168064A1140416004202B
:1023600060646F700020A87028700120FEBD0020FE
:10237000FEBD000000E800FEF8B504460120164648
:1023800040031D46DAB20090079F0023204600F06C
:102390005DF83A462046069900F0B5F8002803D0CB
:1023A000606C04281BD018E02846F5B2012809D03B
:1023B0002168300A88623A462046069900F0A3F860
:1023C0000028EDD120688562009700224021204638
:1023D000069B00F04DF8002800D00320F8BD012036
:1023E000F8BDF8B504460120164640031D46DAB292
:1023F000C3020090079F204600F028F83A46204686
:10240000069900F080F8002803D0606C04281BD0E7
:1024100018E02846F5B2012809D02168300A886200
:102420003A462046069900F06EF80028EDD1206863
:1024300085620097002280212046069B00F018F854
:10244000002800D00320F8BD0120F8BD70B5056854
:10245000049C68688905890D1204044E11431943D0
:10246000304021430143696070BD0000009800FCCA
:10247000F8B51C4617460E46054611E0601C0FD005
:10248000002C05D0FEF7EAFC0699401AA04207D9B5
:102490002020403568700020A87028700320F8BD07
:1024A000286881693046884304D00020B842E5D0CE
:1024B0000020F8BD0120F9E770B516460D46044628
:1024C0001AE0324629462046FFF71CFF002801D0BB
:1024D000012070BD002D04D0FEF7C0FC801BA84277
:1024E0000AD9616C2020014361644034607000208F
:1024F000A0702070032070BD20688069C0438006F2
:10250000DFD4002070BD70B516460D4604461CE0B1
:10251000324629462046FFF7F5FE002801D001206B
:1025200070BD681C11D0002D04D0FEF797FC801BF5
:10253000A8420AD9616C2020014361644034607074
:102540000020A0702070032070BD20688069C04307
:102550008007DDD4002070BDF0B587B01421684637
:10256000FDF7EEFD22484269012189050A434261D7
:1025700042690A400592426949110A43426142692F
:102580000A400592426949000A43426140690927AD
:102590000840FF060590002216493846FEF757FC12
:1025A000012202213846FEF752FC032501260024B1
:1025B00069463846019600950394FEF79FFB3C2040
:1025C0000090694601943846FEF798FB022000907F
:1025D000694601940848FEF791FBB00300906946F4
:1025E000019603953846FEF789FB07B0F0BD000061
:1025F00000100240014000000004004810B50D48E2
:102600000B4901600C4941600121C1600021016159
:1026100041618161C1610162FEF770FC00210548E2
:10262000FEF722FC00210348FEF743FC10BD00002A
:102630000054004048000020FD3E302030B58DB0F1
:1026400000240794089409940A940B941C2168466A
:102650000C94FDF775FD1849184812C018494160DF
:102660000838FFF78BFA01200003079007A91348E9
:10267000FFF7E5FA1148FFF7A8FC0BA90F480C94E7
:10268000FFF758FA602000900120022501900022F7
:102690006946029504940948FFF72FFCFF20E130BA
:1026A00001900422694602950448FFF726FC03487E
:1026B000FFF7EEFB0DB030BD00040040E400002049
:1026C000F704000010B5024800F00CF810BD00003F
:1026D0003100002010B5024800F004F810BD0000E1
:1026E00024000020F8B52D4C0646E068FDF7C6FE34
:1026F0002B4A2C4BFDF748FEFDF7CEFE2168886380
:10270000002504212046FFF77DFC274801F0CAF888
:1027100004212046FFF798FC244801F0C3F819274C
:10272000BF010024705DA04000060DD504211B48A8
:10273000FFF768FC4B20C00001F0B4F804211748F3
:10274000FFF782FC38460DE004211448FFF75AFCDD
:102750004B20C00001F0A6F804211048FFF774FCDC
:10276000FF20F53001F09EF8641CE4B2082CD9D3A8
:102770006D1CEDB20D2DD4D304210848FFF742FCA7
:102780004B20C00001F08EF804210448FFF75CFCE8
:10279000FF20F53001F086F8F8BD0000E4000020CD
:1027A000F6285C8FC2F5D83F282300009411000062
:1027B00010B5FEF7EFFF10BD8307FF22DB0E9A4036
:1027C0008907090E994000280BDA0007000F083826
:1027D000830808489B001818C36993430B43C361DF
:1027E0007047830804489B001B18186890430843EF
:1027F0001860704700ED00E000E400E000B585B02F
:10280000002101910121029103210391818800910E
:1028100000686946FEF772FA05B000BD00B585B0E4
:1028200011210191012102910321039181880091DD
:1028300000686946FEF762FA05B000BD70B504464F
:1028400000208C260FE023780822641C05465D409A
:10285000ED07ED0F4008002D00D07040521E5B08C0
:102860001206120EF2D10A46491EC9B2002AEAD156
:1028700070BD10B5024600F07FF8F021104600F060
:1028800080F810BD002283185B7A8B54521CD2B2A0
:10289000082AF8D3704710B5016004468280FFF71C
:1028A000BDFF2168A08888616420FEF719FAA0881E
:1028B0002168000488616420FEF712FA2168A0886C
:1028C0008861C820FEF70CFA10BD10B5F02100F0A9
:1028D00058F810BD70B504468088002521680004B2
:1028E00088612046FFF79AFF022000F0DBFF2046B8
:1028F000FFF784FF0A2000F0D5FFA1882068FEF7CB
:10290000A1FA002800D00125322000F0CBFF284694
:1029100070BD70B505460824002006E0460828462C
:10292000FFF7D8FFC0013043C0B22146641EE4B2B5
:102930000029F3D170BD10B50446808821680004D9
:1029400088612046FFF76AFFFF20E13000F0AAFF10
:10295000142000F0A7FF2046FFF750FF462000F0AC
:10296000A1FFA1882068FEF76DFA0446FF209B3086
:1029700000F098FF204610BD002181710172C171E5
:102980007047F3B50446002083B007460090012548
:10299000207A2E4600284AD12046FFF7CCFF002897
:1029A00045D12046049900F07AF82046FFF792FFBF
:1029B00001902046FFF78EFF0199012901D10128DE
:1029C00029D0814202D0012908D012E0A079A84282
:1029D00008D9E019407A304206D00121E019427A44
:1029E000324309E0A842F8D000210095092D00D219
:1029F000E571E019427AB2434272204600F02DF8A8
:102A00006D1C70000606EDB2360E02D17F1CFFB2BF
:102A10000126082FC9D3412D09D30098A0710028A1
:102A200001D101202072617A0120002903D1002008
:102A3000A0712072E07105B0F0BD70B50D4606467C
:102A4000552100F02CF80024295D304600F027F8CD
:102A5000641CE4B2082CF7D370BD10B5044680881E
:102A60000204206800298261204609D0FFF7D6FEC3
:102A7000082000F017FF2046FFF7C0FE372008E0CF
:102A8000FFF7CCFE412000F00DFF2046FFF7B6FE19
:102A9000052000F007FF2046FFF7B0FE10BD70B51F
:102AA0000C460646082505E0E107C90F3046FFF74A
:102AB000D4FF640828466D1EEDB20028F4D170BD25
:102AC0007047704710B5FEF7C1FC10BD10B594B04B
:102AD00030216846FDF734FB00200F90092100915A
:102AE00001210C901090119001910E90139007917C
:102AF0000D90090412900991022409010B90089489
:102B00000A916846FEF752FE07200C9001210D94B1
:102B10000CA8FEF75DFD202010901020139010A847
:102B2000FEF7E0FCFEF7EAFD14B010BD13480168A3
:102B30000122114301604168114A1140416001685E
:102B4000104A114001600168012292049143016022
:102B500041683F22120491434160C16A0909090199
:102B6000C162016BFF22143291430163416B49083A
:102B7000490041630021816070470000001002405D
:102B80000CB8FF08FFFFF6FE10B50248FFF7CFF8BC
:102B900010BD0000A400002070B50268174B184E4D
:102BA000984201D0B04203D17024A2434C68224322
:102BB000144C154D984208D0B04206D0134EB04286
:102BC00003D0A04201D0A84204D103263602B2436A
:102BD000CE6832438026B2434E69324302608A682F
:102BE000C2620A688262984203D0A04201D0A84221
:102BF00001D1096901630121416170BD002C0140CF
:102C00000004004000440140004801400020004012
:102C100010B50123046A8B409C430462036A8A4016
:102C20001343036210BD30B58468FF252D021B02DB
:102C30001343AC430B432343836030BD826870234E
:102C40009A430A4307210A4382607047F0B5026A3B
:102C5000520852000262056A436882697024A243E6
:102C600092080C6892001443022295438A68134E1E
:102C70002A43114DA84204D0B04202D0104FB842AE
:102C800006D10827BA43CF681743042297433A4630
:102C9000A84204D0B04202D0094DA84206D1032573
:102CA0002D02AB434D691D438B692B434360846107
:102CB000496841630262F0BD002C014000440140BC
:102CC0000048014070B5026A10239A430262046A08
:102CD0004368826973252D02AA430D682D021543AE
:102CE000202294438A6812012243104CA04208D14A
:102CF0001446CA688026B443120122434024A243EA
:102D000005E00B4CA04202D00A4CA04208D103249B
:102D1000A402A3434C69A4001C438B699B0023437A
:102D20004360856149688163026270BD002C014087
:102D3000004401400048014070B5026AFF2301339E
:102D40009A430262046A4368C2697025AA439208E2
:102D50000D68920015430122520294438A681202C0
:102D60002243104CA04207D1C414A243CC682402D1
:102D700022430615B24305E00B4CA04202D00B4C97
:102D8000A04208D103242403A3434C6924011C431B
:102D90008B691B0123434360C5614968C1630262BB
:102DA00070BD0000002C014000440140004801407B
:102DB00030B5026A01231B039A430262056A426826
:102DC000C36973242402A3430C6824021C43012317
:102DD0005B039D438B681B032B430A4DA84205D020
:102DE000094DA84202D0094DA84205D10125AD03E5
:102DF000AA434D69AD012A434260C4614968016438
:102E0000036230BD002C01400044014000480140F5
:102E100030B5036A046A6408640004628469F025BA
:102E2000AC43120122430A24A3430B438261036291
:102E300030BD30B5036A1024A34303628469036A7A
:102E40000F252D031203AC432243A024A343090101
:102E500019438261016230BD0FB47CB50C0009AD2D
:102E600001D0611E00E0002101910090074B6A46ED
:102E70002946089800F0ECF8002C02D0009A0021B6
:102E800011707CBC08BC04B0184700008D370008E6
:102E90002021020C01D010211046020A01D0104658
:102EA0000839020901D01046091F820801D01046D6
:102EB000891E420801D0881E7047081A704702E038
:102EC00008C8121F08C1002AFAD1704770470020B5
:102ED00001E001C1121F002AFBD17047F0B51FB4F9
:102EE00086B00998089A030D0021024314D0514876
:102EF000514A1818504305141198012810981AD0F7
:102F0000281A401C00264D4F4D490096019104900F
:102F1000002812DA444211E01198012449A3012843
:102F200001D11098C1430698119A84600360C26071
:102F300041600BB0F0BD4042E4E7044621050020AB
:102F40003F4A001C51410391029012E0E00707D074
:102F500032463B4601990098FDF716FA0191009020
:102F600032463B4610461946FDF70EFA06460F4616
:102F70006410002CEAD10498039B0028029A099956
:102F8000089806DAFDF700FA019B009AFDF7FCF9B4
:102F900005E0FDF7FFFB019B009AFDF7FBFB0446F4
:102FA0000E460022284BFDF7BDFA03D80020C0438F
:102FB000014607E00022254B20463146FDF730F957
:102FC000FDF760FC102409E0002C0ADB0A22002334
:102FD000FDF7ECFA079B30321A55641E02460A438D
:102FE000F2D11122641C079B121B1C19119B012B8F
:102FF00003D0012308430ED10AE0084304D0112076
:1030000010900020119077E71098151A6D1E0BE0B4
:103010001098824202DD00236D1C03E0824201DA37
:1030200000236D1E002BEED0069811998260C160BE
:1030300030C07EE701FCFFFF104D0000000014408F
:103040000000F03F300000000000F0430000E03FCF
:10305000FFB597B0064600251BE2252876D100244F
:103060002746F749049400E00443761C3278012097
:10307000203A90400842F7D130782A280ED0022218
:10308000307801463039092916D804990A23594362
:10309000303940181443761C0490F1E7189802C8A0
:1030A00004911890002904DA0120400304434842A7
:1030B000049002200443761C30782E2814D104207A
:1030C00004437078761C2A2809D11898761C80C889
:1030D000189009E00A214F43303FC719761C307819
:1030E000014630390929F5D930786C2810D006DC32
:1030F0004C281AD068280ED06A2817D104E074280A
:1031000013D07A2812D110E00120400504430CE0CE
:103110000121090501E0032109050C437178814271
:1031200003D1012000052418761C761C307866280F
:103130000BD013DC58287DD009DC00287BD0452833
:10314000F6D04628F4D047281AD1A9E118E0632820
:1031500035D0642870D0652812D1A1E170286CD0D8
:1031600008DC6728F1D069287DD06E280DD06F2843
:1031700006D1BCE073282ED0752873D0782859D09A
:103180001A9A199990476D1C82E16002400F02283B
:1031900009D003280DD00428189801680DD00D60BF
:1031A000001D189074E11898EA1701680D604A60D4
:1031B000F6E7189801680D80F2E70D70F0E71898AF
:1031C0006A4601781172001D18900020507202A802
:1031D0000090012005E0189802C818900020009186
:1031E000C04361070ED5002101E00199491C0191FE
:1031F000B94213DA8142F8DB019A0099895C00290F
:10320000F3D10BE0002101E00199491C01918142B9
:10321000FADB019A0099895C0029F5D1019904989B
:103220001A9B471A21463846199A00F099FA401914
:10323000019903E051E030E115E050E0451807E066
:10324000009800990078491C00911A9A19999047A2
:103250000198401E0190401CF2D1214638461A9B2D
:10326000199A12E137E00A200021009001916002D2
:10327000410F022907D0189A01CA1892C217944622
:10328000032908D00AE01898C01DC108C90005C963
:103290001891944607E000B2C2179446042902D15F
:1032A00040B2C1178C4600226146944506DA0A46B0
:1032B0000021404291418C462D2102E0210504D598
:1032C0002B216A461173012103E0E10701D020217F
:1032D000F7E7029156E00A200AE0102008E01020EB
:1032E00000900021042004430191082703E00820F6
:1032F0000021019100906002410F022907D0189A25
:1033000001CA189200229446032908D008E01898B0
:10331000C01DC108C90005C91891944603E080B2D8
:10332000042900D1C0B20021029121072AD53178A9
:103330000D91702906D0009A1021019B4A401A4332
:1033400005D00EE040216A461173012108E0614674
:10335000014306D030216A4611730D995173022141
:103360000291009A0821019B4A401A430AD1614602
:10337000014301D1610705D530216A46117301214E
:103380007F1E02913178582904D02EA10E910DA9EB
:103390000D910DE030A1F9E76146019B009AFDF720
:1033A00005F90E9B8C469B5C0D9A521E0D92137074
:1033B00061460143F0D10D9805A9081A203001900B
:1033C000600703D501200004844300E00127019831
:1033D000874201DD381A00E0002001990090411871
:1033E000029809180498401A0490E00306D4214674
:1033F0001A9B199A049800F0B3F94519002706E0C2
:1034000003A81A9AC05D199990476D1C7F1C0298F9
:103410008742F5DBE0030CD521461A9B199A0498E4
:1034200000F09EF9451904E01A9A30201999904746
:103430006D1C0099481E00900029F5DC1FE000007B
:10344000092801003031323334353637383961627A
:10345000636465660000000030313233343536373E
:103460003839414243444546000000000D980D990B
:103470000078491C0D911A9A199990476D1C019971
:10348000481E01900029F1DC4DE100F059F9451981
:10349000761C3078002800D0DFE528461BB0F0BD50
:1034A000600700D406271898C01DC108C9004868E5
:1034B0000A680831C30FDB071891190001D09CA1DD
:1034C00008E0210501D59BA104E0E10701D09AA104
:1034D00000E09AA14300109130785B0865280CD079
:1034E00006DC452809D046281DD0472841D141E0B7
:1034F000662818D067283CD13CE00021112F01DB61
:10350000112000E0781C0191009008A911A8FFF794
:10351000E5FC139905910021119A15927F1C1298D0
:103520000197009150E00120C00703900120019015
:1035300008A9009711A8FFF7D1FC139A14990592D6
:103540000022119B009212981593059A019200296E
:1035500001D0104602E0791C40180190381A01D5BC
:10356000019804E04042401E0090781C0190C01B6E
:10357000029043E0012F00DA01270021112F01DD25
:10358000112000E038460191009008A911A8FFF72A
:10359000A5FC13990591119A00211298159200919A
:1035A000019721070CD40599B94201DB019900E08C
:1035B0000191012904DD159A491E515C302906D07C
:1035C000B84201DA011D05DA0121029115E00199E5
:1035D000491EEDE7002805DC00994118009101998A
:1035E000091A03E0019A411C914200DD0191009902
:1035F000401A401C02900120C0070390200706D407
:1036000002990198814202DB0020C0430290002011
:103610006946C87707AF012103980337C907884275
:1036200024D0022011902B201290039800280CDA4D
:10363000404203902D20129007E00A210398FCF7E6
:1036400051FD30317F1E039039701199481E119041
:103650000029F2DC03980028EFD1791E1298087037
:103660003078202108404530BF1E387006A8C01BA6
:10367000C01D039010980078002800D00120019907
:1036800041180298C0170918039809180498401A9D
:10369000401E0490E00306D421461A9B199A049810
:1036A00000F05EF8451910980078002803D01A9AA7
:1036B000199990476D1CE00324D521461A9B199A4D
:1036C000049800F04DF845191CE00098002807DB2D
:1036D00000990598884203DD1598405C199901E02E
:1036E000199930201A9A904700986D1C401C009040
:1036F0000298401E0290002804D11A9A2E2019998F
:1037000090476D1C0199481E01900029DDDC05E001
:1037100038781A9A7F1C199990476D1C0399481E96
:1037200003900029F4DC21461A9B199A0498ACE610
:103730002D0000002B000000200000000000000011
:10374000F8B5044600251E461746880404D405E053
:1037500039462020B0476D1C641EF9D52846F8BDB7
:10376000FFB50446002581B01E46C80301D53027A9
:1037700000E02027880404D505E038460399B047C7
:103780006D1C641EF9D5284605B0F0BD4A68002AB4
:1037900006D00A68531C0B6010704868401E4860D1
:1037A000704700003EB564246D461CC50A460146BC
:1037B00001230448FDF788FC04460A20FDF790FA2F
:1037C00020463EBD4800002008B504236A46FFF7A6
:1037D000E9FF009808BD0000FFB5C809401C0F466E
:1037E000C001C01BC4B27D20C00083B01D46164678
:1037F000A3423CD90A4602900123009601941F4837
:103800000399FDF70DFD0A20FDF76AFA281B85B222
:10381000381987B215E07D22D2008021301902923A
:103820000191009001233A4614480399FDF7F8FCF2
:103830000A20FDF755FA80378034803DBFB2E4B2EC
:10384000ADB2802DE7D8002D0ED07D20C0003119FB
:1038500001233A4601950091029008480399FDF72B
:10386000DFFC0A20FDF73CFA002007B0F0BD019311
:103870000092029001230A46EFE700004800002072
:1038800008B5009204236A46FFF7A6FF08BD70B58D
:1038900005460C466420FDF723FA28692042FCD136
:1038A00070BD000001B5074882B00068416A009110
:1038B00002990191416A009A891A019A9142F9D3B9
:1038C0000EBD00002401002010B50248FEF7A0F94B
:1038D00010BD00002401002010B5002823D0124B99
:1038E0000022001F196803E0814203D80A46496894
:1038F0000029F9D1002A0AD01368841A9C4204D105
:10390000006818181060104602E0506000E018606F
:10391000002907D002680B1A934203D10B68D21812
:1039200002604968416010BD4000002008B50749A9
:103930000123087064200A4600904E210448FDF7D8
:1039400037FB0120FDF7CCF908BD00003E00002048
:103950004800002010B5012000F072F80120FDF7AA
:10396000BFF910BD7CB5491C0646CCB2204600F01C
:103970008BFA05463046FCF7ADFD0191009008A298
:1039800021462846FFF768FA281920212038C177F8
:103990002146284600F006F82846FFF79DFF7CBD2B
:1039A0002566000070B50D460646002404E0305D33
:1039B00000F068F8641CE4B2AC42F8D370BD10B5F6
:1039C000002901D0A83000E08030C0B200F038F803
:1039D00010BD10B5002801D0A82000E0802000F024
:1039E0002FF810BD10B5022000F02AF810BD10B558
:1039F0006E20FDF775F9302000F022F80620FDF763
:103A00006FF9302000F01CF8302000F019F8202069
:103A100000F016F8202000F013F8082000F010F84D
:103A2000012000F00DF80320FDF75AF9062000F000
:103A300007F80C2000F004F8FFF78CFF10BD000021
:103A40007CB50E4A010914780901214304230D466F
:103A50001D436A4600011571517120430146194307
:103A60009171D0716420009001AA4E210448FDF7A5
:103A70009FFA0120FDF734F97CBD00003E000020D4
:103A8000480000207CB5104A010915780901294336
:103A900005230C461C436A4614710124000121438E
:103AA000517128430146194391712043D07164201C
:103AB0000090042301AA4E210448FDF779FA012061
:103AC000FDF70EF97CBD00003E00002048000020FC
:103AD00008B5020A69460A70487002236A46322114
:103AE000A020FFF779FE08BD86B0FDF7B7FCFEF712
:103AF000EDFF0A20FDF7F4F8FEF72EFDFEF77EFD40
:103B0000FEF79CFDC748C64901602F214160C649A8
:103B1000C160FEF733F80025C24800950195029573
:103B200003950495C149803805950160C0494160FD
:103B3000C049C160FEF722F8012000030090B94897
:103B400069468038FEF77BF8B64804A98038FDF74F
:103B5000F1FFB448B8499038016003214160B7498A
:103B6000C160B7498160FDF737FCFFF7ADFEFFF795
:103B70003EFF0821B3A0FFF715FFAA4800214038F7
:103B8000FEF740FA00240926F606A6489038FDF70D
:103B900055FCFDF703F8002806D0FDF75DF8A148B5
:103BA0009038FDF74BFC1AE00821304600F0A2F9EE
:103BB000002814D12821C820FCF796FE042C0AD92D
:103BC000FFF7C8FE0621A2A0FFF7ECFE2821C820BF
:103BD000FCF78AFEFAE7641CE4B2072CD5D300F0A8
:103BE000A1F9FFF7B7FE01210F20FFF7E8FE5420EF
:103BF000FFF748FF994C9848E0608A488038FEF704
:103C000059FA88488038FEF70FF801278548903820
:103C1000FDF714FC2021304600F06CF9002845D057
:103C2000207900280AD082496089EF3988424ED233
:103C30004B210901884229D2323028E08849206985
:103C4000884208DAFCF746FC864A874BFCF7E8FA1C
:103C5000FCF77CFC00E085487F212061C905E06815
:103C6000FCF779FAE060052060710A21A020226942
:103C7000FFF706FE0120FFF7ACFE05217CA0FFF751
:103C800091FE05212069FFF76DFE0CE00A3060818E
:103C900080B2FFF71DFFE078002804D061486189F9
:103CA0004038006841639620FDF71AF8102130462D
:103CB00000F020F9002847D0207900280AD0608938
:103CC000322832D96C4988422CD232382BE06A48EB
:103CD0003330DCE769492069884208DBFCF7FAFBEE
:103CE000604A614BFCF741FBFCF730FC00E06448A4
:103CF0007F212061C905E068FCF72DFAE06005200E
:103D000060710A21A0202269FFF7BAFD0120FFF7A8
:103D100060FE052156A0FFF745FE05212069FFF74B
:103D200021FE0EE00A38608100E067816089FFF7BC
:103D3000CFFEE078002804D03A4861894038006816
:103D400041639620FCF7CCFF02214E4800F0D2F8E8
:103D5000002811D0E078002839D0FF203221F5303A
:103D6000FCF7C2FD2F48403800684763E580E570E6
:103D700002214448FFF78BFD0421304600F0BAF8D9
:103D8000002813D0607800282DD0FF203221F53094
:103D9000FCF7AAFD002202213046FDF758F82581E4
:103DA0006570A77004213046FFF771FD0821304689
:103DB00000F0A0F8002800D128E720797840207191
:103DC0001ED001210F20FFF7FAFD4C201DE032210B
:103DD000C800FCF789FD13486189403800684163D9
:103DE000E580E770C4E73221C800FCF77DFD0122C1
:103DF00002213046FDF72BF8A57025816770D1E7C9
:103E000001210F20FFF7DBFD5420FFF73BFEC82008
:103E1000FCF766FF08213046FFF739FDF6E60000A3
:103E20000020004024010020FFFF0000002C014082
:103E3000DB050000FFF9000000300040FF0F00002C
:103E4000AC0D00005374617274696E67000000006D
:103E50004661696C6564000000004041000000207C
:103E60009A9907429A9999999999B93F00000842FD
:103E7000536574543D000000C4040000CDCCA04143
:103E80000000A04100040048F0B50B30C108C90093
:103E9000144F0026144A0FE003688B420BD38B4269
:103EA00005D95C1A4318456830C3083B00E04368F5
:103EB000136002C004E0021D10680028ECD13046F7
:103EC000002803D13868002801D00020F0BD064A40
:103ED00006481060064A121AD208D20044C00120D7
:103EE0003860D7E744000020400000208C0100200B
:103EF0008803002070B5054600690C4620420DD0AD
:103F00001E20FCF7EDFE2869204207D00820FFF7AD
:103F10000DFD034900200870012070BD002070BD18
:103F20000000002038B50A21A020FFF74DFC0A4C04
:103F300020610A48FDF782FA0020009002236A46B9
:103F40003221A020FFF72EFC69460878497800024C
:103F50000143618138BD0000000000209400002072
:103F60000000000000000000010203040607080929
:103F7000903F00080000002048000000BE2E00080E
:103F8000D83F00084800002040070000CE2E00085F
:103F9000000100000005000000000000000000001B
:103FA000000000000000000000127A000100000084
:103FB00000000000C311000005000200000400A082
:103FC0000AC311000005000200000000A00C080058
:083FD0000000000000000000E9
:04000005080000B13E
:00000001FF
